:4000000000800020110000005D0800005D08000010B500F02BFCC04610B512221C4B1A6000F012FD302000F05DFE1A4A1A4B1A6000241A4B1C601A4B1A4A1A601A4A14608C
:400040001A4A1A601A4A14601A4A1A601A4A14601A4A1A6082221206194B1A608022D202184B1A604222184B1A600132174B1A60033A174B1A600132164B1A60164908204B
:4000800000F054FD082000F045FD144B1C6010BD300010400600008004010B40080301400000014042FF00800C03014043FF00800003014040FF00800403014041FF00803C
:4000C00008010B4000010B403801014034010140300101402C010140211100000C020B4070B572B60122524B1A7000240FE051486200131959000B00411889881A5AC31817
:4001000058880004104300F09FFB0134E4B2032CEDD9002414E0474EA20011194B00F318198B588B000408439D8BD98B0904294313195A00B218128C00F08CFB0134E4B264
:40014000012CE8D93B492C313B481C3000F03CFB01213A4B1970CE22D205394B1A60E022D200384B1A60CC229201374B1A600622364B1A6099231B04354A13608020800265
:40018000344A1060344A136080208003334A1060334A1360334A1360A020C005324A1060324A1360D0221204314B1A60A022314B1A60803A304B1A601032304B1A60103232
:4001C0002F4B1A6003202F4B1860113A2E4B1A6003322E4B1A602E4B19602E4C23780A32934314221343DBB223702B4A147816232343DBB21370C023284A1360284A13606E
:40020000284B18600222284B1A600732274B1A600332274B1A60D8221201264B1A60264B1960264B1960FFF7F7FE00F0E7FA70BD1C700F40BC3000003C35000020700F40B0
:400240000000024000010240000302400005024000500F4008500F4010500F4018500F4020500F4040500F4048500F4070500F4078500F402001204060012040A0012040D3
:40028000E001204020001040082001400C20014000800F4001700F4000700F400000044018000440000D04400C0D044008020440000304400803044000050440180504408D
:4002C00010B5064C2378002B07D1054B002B02D0044800E000BF0123237010BD0002002000000000B8300000084B10B5002B03D00749084800E000BF07480368002B00D178
:4003000010BD064B002BFBD09847F9E70000000004020020B8300000C00000200000000070B50021032000F083FEA34B984207D20021022000F07CFE9F4B984200D231E12C
:4003400072B69E4C9E4D2100280002F0EBFA611CFF31280002F016FB032000F00FFE022000F00CFE0023974A1370974A13700222964B1A7062B600201CE1954B9B5C002B9B
:4003800000D102E111028D480A18095C490609D4D11801390978490604D40133DBB2591E7F2050548B490868441C0C607E240470086889490968884203D388490868854920
:4003C000086081490978890085480C5885480168091B04607F2912D87E4805686C1C0460802464422143297000687B490968884200D2A5E07949086876490860A0E07A4881
:40040000814222D8734C2568681C2060C8097F2630402870246870480068844203D36F4804686C4804606B4805686C1C0460802464422143297000686749096888427FD3B6
:4004400066490868634908607AE06848814233D8604C2568681C2060880B7F263040287024685D480068844203D35C48046859480460584C2568681C2060C8097F2630408F
:400480002870246854480068844203D353480468504804604F4805686C1C0460802464422143297000684C490968884248D34B4908684849086043E0464C2568681C2060A8
:4004C000480D7F2630402870246843480068844203D3424804683F4804603E4C2568681C2060880B7F263040287024683A480068844203D33948046836480460354C2568B4
:40050000681C2060C8097F2630402870246832480068844203D3314804682E4804602D480468651C056080256D4229432170006829490968884203D32849086825490860B6
:4005400024490868441C0C600370086822490968884216D3214908681E49086011E01D4B19684C1C1C60541C12780A701A681A4B1B689A4203D3194B1A68164B1A600300A5
:400580002200591EC8B2002BE9D10F4A137800200F49C8540133DBB213701F2B02D90022094B1A70084B1A78064B1B789A4200D0E3E6012070BDC0469067002090470020C2
:4005C00066000F408847002084460020C402002094670020B46700209067002080460020004500208C470020FE3F0000FEFF1F00F0B591B062B6012002F080F902F0FCF813
:4006000002F0EEF802F006F902F038FB02F0CCFA012002F005F9002002F002F902F05EF95C4C5D4D2100280002F07CF9611CFF31280002F0A7F90023584A1370584A1370D7
:400640000222584B1A70584B584A1360584A1360584A13608022D20194466344564A1360002002F04BF902F025FA402002F032FA02F0CEF902F00CFC02F0FAFB02F016FCBB
:4006800002F05CFC02F04AFC02F066FC02F0AEFB02F050FB0121002000F05AFE02F0EEF8464B1860FFF73CFE00F094FE002805D000F08AFE002801D000F0B8FF00F084FEE8
:4006C0000028EFD000F0FCFF002806D03C4C200001F012F8207802F0FDF9354B1C68334B1B689C4205D91C1B8023DB019C46644400E01C1B3F2C00D94024022CD2D900F07E
:40070000EDFF0028CED03F2C1AD8294B19682A4B1D686D1AAC4200D82500AAB2022000F08BFE234B1A68944665441D60224B1B689D42B7D3234B9C4665441D4B1D60B1E793
:400740001B4B19681C4B1D686B1A9C4218D9FF251D402A00684602F09DFC164B1E68144F3E6028006844651B2A00310002F092FC75193D60A2B26946022000F05DFE91E744
:40078000A2B2022000F058FE094B1A68944664441C6087E79047002066000F408847002084460020C402002000050020B4670020B867002080460020906700208C47002041
:4007C0008846002000C0FFFFF0B50025002711E0BB00C658F3B2FF22964308E06A008A181478A419527822700135013BDBB2002BF4D10137112FEBD9F0BDC04633230A4AD2
:4008000013600A4A136080221206094B1A600323084A13600849094A1160094A13600022084B1A607047C04604210240082102400000304030003040014020008000304051
:4008400030003140000E3F4010B50A00002102F02AFC10BD10B502F01DFC10BD10B502F0EDFB03680C2B00D1FEE7FEE770B50F4E0F4D13E029686B68AC68002202E001C9E5
:4008800001C30432A242FAD1E868002202E0002102C304328242FAD11035013E002EE9D102F0D2FBFFF7A4FEFEE7C04601000000CC38000010B50E4A136801218B431360E2
:4008C00000230AE0032B03D89A000A49505800E009489900094A885001332F2BF2D9FFF7FFFB034A116801230B43136010BDC04600001040000000005D08000000000020BC
:40090000074B1B78272B05D8064B1B78DBB2064A136004E0054B1B78DBB2034A1360704702F3FF0F42F3FF0F20FF0B40C1F1FF0F00230AE0204A12683F210A401F49C95C0C
:400940008A4201D1033303E001332D2BF2D903231B4A12781B2A16D8302B05D1194B1B78DBB2194A136006E0182B04D1174B1B78DBB2154A136016490B681F229343173A0A
:4009800013430B6016E0302B05D1124B1B78DBB20D4A136006E0182B04D10F4B1B78DBB2094A13600A4A13681F218B430B4909780B4313607047C0462CFF0B40A03600004E
:4009C00002F3FF0F3FF3FF0F28FF0B403EF3FF0F34FF0B40C3F1FF0FC2F1FF0FC0F1FF0F00230AE00D4A12683F210A400C49C95C8A4201D1033303E001332D2BF2D903230D
:400A000008490868084A02400A60084A944663441B78DBB2064A13607047C0462CFF0B40A036000000002240FFFFFFBF4DF3FF0F28FF0B40034B18688023DB05184000D0E1
:400A4000012070470000224010B50B4A136801218B431360094B1A68094B1A60094A12685A60FFF765FFFFF74BFF074A116802230B43136010BDC04650000C4034FF0B40E2
:400A80001C02002020FF0B4024002C4030B500230AE0134A12683F210A401249C95C8A4201D1033303E001332D2BF2D903230E490A68022082430A600C4C21681F229143C7
:400AC0000B4805682A400A4322604168094A1160094A944663441B78DBB2084A136030BD2CFF0B40A036000024002C4034FF0B401C02002020FF0B404DF3FF0F28FF0B4028
:400B0000034B1B680220184000D001207047C04624002C401F2318401E3B8340014A13607047C04600E100E001BE704770B504000D001F2802D90020FFF7F6FF1034A40079
:400B400080239B059C4664442068256070BDC04670B504000E00032902D90020FFF7E4FF1F2C02D90020FFF7DFFF03252540ED00063502F002FAA408A400074B9C46644448
:400B800021680323AB4099430B003100A9401943216002F0F6F970BD00E400E010B5040006E0084B586802F0DFF9074B9C46644480231B029C42F4D8024B9868604302F037
:400BC000D3F910BDC40000200080FFFF70B582B000F050FA002862D002F0CFF90500314A116801230B43136000230AE02E4A12683F210A402D49C95C8A4201D1033303E07C
:400C000001332D2BF2D903230021294A1160294A1268D20606D1274802681F318A4313390A430260244C2168244A1140244A5A438023DB019C466244D20B013A5205520D0D
:400C40000B001343A0225203134323601D4B1B680193302002F098F91B4A13688021C9050B4313602668194B1E40002407E00120FFF794FF1034A30533430F4A1360EE2C74
:400C8000F5D90120FFF78AFFFF239B051E430A4B1E60019A0B4B1A60280002F072F902B070BDC04650000C402CFF0B40A036000028FF0B4034FF0B400800224000F800C001
:400CC00040420F003000104000002240FFFF3FC010B5034B1B7B584302F046F910BDC046C4000020F0B55F4656464D464446F0B483B0040002F041F90190FFF79BFE002806
:400D000004D0FFF76DFE01239A4601E000239A46182C01D0302C04D1FFF7B8FE01239B4601E000239B46E61E2D2E74D8454B1B78DBB29C4208D8444B1B78DBB29946434B85
:400D40001B78DBB2984631E0414B1B78DBB29C4208D8404B1B78DBB299463F4B1B78DBB2984623E03D4B1B78DBB29C4208D83C4B1B78DBB299463B4B1B78DBB2984615E080
:400D8000394B1B78DBB29C4208D8384B1B78DBB29946374B1B78DBB2984607E0354B1B78DBB29946344B1B78DBB29846334B9F5D2F2F09D92A2C07D91922314B1A600520A6
:400DC00002F0D2F8192503E02D4B1D683F231D40BD4206D9294B9A5D294B1A60052002F0C3F8254B9C4664442378DBB2254A1360254B4A461A60254B42461A600520FFF746
:400E000067FFBD420AD21D4B9A5D1D4B1A60052002F0AAF802E00020FFF786FE5346012B01D1FFF7D3FE5B46012B01D1FFF70CFE019802F0A6F803B03CBC90469946A2468D
:400E4000AB46F0BD40F3FF0F41F3FF0F42F3FF0F43F3FF0F44F3FF0F45F3FF0F46F3FF0F47F3FF0F48F3FF0F49F3FF0F4AF3FF0F4BF3FF0F4CF3FF0F4DF3FF0FA036000015
:400E80002CFF0B4028FF0B401CFF0B4020FF0B40134B1B78DAB20260124B1B781B0213430360114A12781204134303600F4A12781206134303600E4B1B78DAB242600D4BFB
:400EC0001B781B02134343600B4A12781204134343600A4A12781206134343607047C04678F2FF0F79F2FF0F7AF2FF0F7BF2FF0F7CF2FF0F7DF2FF0F7EF2FF0F7FF2FF0FD3
:400F000070B5084B1C68084B1C60002507E0E30703D5AB00054A9B58984764080135002CF5D170BDFC171040F0171040D800002010B50020FFF7F8FD10BDC04610B5010070
:400F40000E20FFF7F3FD10BD10B5094B1B78002B09D10848FFF7F2FF03210E20FFF7F8FD0122034B1A7080221206034B1A6010BD3C020020010F00000010104010B504008A
:400F80001F2802D90020FFF7CFFD044AA400A358802109060B43A35010BDC0468010104070B505000C001F2802D90020FFF7BCFD012C02D90020FFF7B7FD6D002C192401CC
:400FC000034B9C46644480231B06E36070BDC0460018104070B505000C0016001F2802D90020FFF7A1FD012C02D90020FFF79CFD6D002C192401014BE65070BD00181040B0
:4010000070B505000C0016001F2802D90020FFF78BFD012C02D90020FFF786FD6D002C192401024B9C466444666070BD0018104070B505000C001F2802D90020FFF774FD1B
:40104000012C02D90020FFF76FFD6D002C192401024B9C466444606870BDC04600181040034B1868C0231B02184000D00120704700010B40034B1B68002B01DA012000E0E3
:40108000002070470000224010B501F076FF044A1368C02109020B43136001F072FF10BD00010B4010B501F068FF08490A68084B1A408024E40122430A600A68134080228F
:4010C000120213430B6001F05CFF10BD00010B40FF3FFFFF70B5050001F04FFF0400FFF7BFFF002803D0FFF7DDFF012100E0002108482840084A1568084B2B401843106059
:401100001368012901D1FFF7BFFF200001F039FF70BDC0460404040010020B40FBFBFBFF10B5244B1B685B0715D5234B5B685B070ED5224B596A042001401F4C62688A439F
:4011400062605A6A82435A629B69002B00D098470420FFF7BFFF174B1B685B0518D5164B5B685B0510D5154B596A8022D2001140114842688A434260596A114A0A405A6299
:40118000DB69002B00D098478020C000FFF7A2FF084B1B685B030CD5074B5B685B0304D5064B1B6A002B00D098478020C002FFF791FF10BD10020B405C0100204002002018
:4011C000FFFBFFFF10B50122244B1A60244A136820218B4313600A22224B1A60224C234B23602368224A1343236023680422934323600220FFF76CFD2368082293432360E0
:40120000FFF77EFC002800D002201A4B18601A4A1A4B1A6007221A4B1A6003211E20FFF797FC18491E20FFF781FC03211F20FFF78FFC15491F20FFF779FC03210120FFF7D8
:4012400087FC12490120FFF771FC03210520FFF77FFC0F490520FFF769FC10BD74022C4048002C4030032C4000202C40010000040C0000B824002C401A00150030202C40A8
:4012800028202C40E11C0000611D0000211D0000A11D000010B50C00204B18700023204A1370204A1370204A1370204A1370204A1370204A1370204A13701E20FFF72AFC47
:4012C0000120FFF727FC1F20FFF724FC002C02D0012C06D00BE0194A136801218B4313600AE0164A116801230B43136004E0134A116801230B43136010490B680422934323
:401300000B6000210E4B196001310E4B19607F310D4B19600D4B1A6010BDC046D5670020D8670020F4670020F7670020EC670020F6670020F9670020D467002024002C4016
:40134000A4002C40A0002C4020002C4048002C4070B504000D00074B1B78002B04D1FFF731FF0122034B1A7029002000FFF792FF70BDC0466802002000230A4A13700A4AFA
:4013800013700A4A13700A4A13700A4A13700A4A13700A4A13700122094B1A607F32094B1A607047D8670020F4670020F7670020EC670020F6670020F9670020D46700202D
:4013C000A0002C4020002C40014B1878C0B27047F7670020054B1B78002B05D0034B1878C0B200221A7000E000207047F4670020430018188300024AD3185878C0B270479B
:40140000FC670020431EDBB2072B10D88301094A985880B20002F02212011040054A944663445B68184380B2023880B200E000207047C046F0FF2B40F0B5431EDBB2072B49
:4014400041D8060044002418A3001F4CE318DC8880239B001B1B9A4209D9420012189300194AD318DA8880239B009A1A92B2130A45002D18AC00144D2C19E4781C43830111
:40148000124D5C51D4B2AC4663445C60002909D10BE0CD5CB4010E4FBC466444256201339BB200E000239A42F3D8420012189300054AD31800225A705B79DBB28001034A6C
:4014C000944660448360F0BDFC670020F0FF2B40C0012C40431EDBB2072B0DD8420012189300064AD31800225A705B79DBB28001034A9446604483607047C046FC670020D9
:40150000F0FF2B4070B505000E00140000291BD000281BD008281BD8FFF774FFA04203D22800FFF76FFF0400002307E0AA010A498C466244126AF25401339BB2A342F5D39B
:401540002800FFF7C7FF04E0002402E0002400E00024200070BDC046C0012C4010B5FF2400220FE0094B9B5CDBB25900CB189900074B59188B7ADBB2834201D1140002222B
:401580000132D2B2012AEDD9200010BDC4670020FC67002010B5204C2069C0B2FFF7DEFF23681B060DD56368212B31D11B4A1A3B1380C300181A1A4B1818506000F0D4FADD
:4015C00029E0154B5B68202B02D0222B11D021E0124A07231380C3001B1A1149CB185360104A115C01230B43DBB2135400F0E8FA11E0094B9B68DBB241000B4A8B52094AD8
:40160000115C02230B43DBB2135400F06BF902E0002000E0002010BD00002C40E067002064010020BC670020D067002010B500231E4A13701E4A1370537000240AE01D4BCA
:40164000185DC0B2431EDBB2072B01D8FFF742FF0134E4B2012CF2D9174B1B78002B18D0144B1B78002B16D0144B1B78002B14D0114B1B78DBB2082B11D80E4B1B78DBB273
:40168000082B0ED80D4B1B78DBB2082B0BD800200AE0012008E0012006E0012004E0012002E0012000E0012010BDC04669020020BC670020C8670020C0670020C4670020BD
:4016C00010B5044B1B78044AD05CC0B2FFF790FE10BDC04669020020C867002010B5044B1B78044AD05CC0B2FFF782FE10BDC04669020020C067002010B50100074B1B78CD
:40170000074AD35CD8B2420012189300054AD3181A8992B2FFF7F6FE10BDC04669020020C8670020FC67002010B5C37803242340807840B2002812DA032B07D00123134061
:401740000D48C15401200243D2B212E09308012003400A48C15404200243D2B209E0032B07D05308012003400548C15402200243D2B2100010BDC046C0670020C467002061
:40178000C867002010B51F4B1B781F4A1188CB189BB2138000210EE01C4B5A681278D2B28C001B4822505A6801325A6001311A88013A92B21A80154B1B889BB2002B01D0C4
:4017C0000729E9D90F4B1B78082B01D000290DD0104A107880235B424340DBB213700F220D4B1A700D3A0D4B1A7004E002230A4A13700A4A1370C9B2094B1970014B19702B
:4018000010BDC046D4670020D6670020E067002000002C406A680020F5670020D8670020F86700200222074B1A707E32064B1A70713A064B1A700023054A1370054A137026
:4018400001207047D86700206A680020F5670020D4670020F867002010B5FFF793FF10BD30B5194B1B680F2119400239174A1088FF230B40C3189BB2138000200FE0144BB0
:401880005C688500134AAA58D2B222705A6801325A60013001391A88013A92B21A800C4B1B889BB2002B01D00029E8D1C9B20A4B19700A4A117880235B424B40DBB213705F
:4018C0000B22074B1A7030BDA4002C40D6670020E067002000002C40F86700206A680020F56700200623064A1370064A13708022054B1A700022054B1A7001207047C046A0
:40190000D8670020F56700206A680020F8670020064B9B68002B08D0044B9A6810709A6803490988518000229A607047E0670020D667002010B5144B1A68FF210A401A6062
:401940001B68DAB21B0602D5104B1A701BE00220FFF7DEFF0E4B1B6860221340202B06D0402B07D0002B08D100F014FD06E001F035FB03E000F096FE00E00020002802D109
:401980000322024B1A7010BDA0002C40F567002000002C4010B5084B1B78084A1188CB189BB213800022064B1A700120FFF7B0FF0322044B1A7010BDD4670020D6670020CB
:4019C000D8670020F567002010B50B4B1B78DBB2042B06D0062B07D0022B0BD1FFF7DAFF08E0FFF73DFF05E00320FFF791FF0322024B1A7010BDC046D8670020F56700209A
:401A000010B50022044B1A700120FFF781FF0322024B1A7010BDC046D8670020F567002010B50C4B1B78002B09D00A4A117880235B420B43DBB208490B6000231370002276
:401A4000064B1A700120FFF763FF0322044B1A7010BDC046F667002020002C40D8670020F567002010B5094B1B78DBB2042B06D0062B07D0022B07D1FFF7EEFE04E0FFF756
:401A8000BFFF01E0FFF7CCFF10BDC046D867002010B5264B1B68DA0643D51A060CD50F221340012B14D1FFF745FF214B1B785BB2002B0FDB012310E05A0603D5FFF7D2FFDF
:401AC00001230AE09B0607D5FFF77EFF012304E0002302E0002300E00023002B21D0134B1B681B061DD4134B1B78134A12781343124A13601268934213D10D4B1B78DBB2FE
:401B00000A4A1268120607D4094B1B78DBB2074A136013680F221340054A1278D2B29342EBD10422064B1A6010BDC046A0002C40F56700206A680020F8670020A4002C40F2
:401B400020202C400022064B1A80064B9B68002B05D0044A916800230B70926853807047D6670020E067002010B5114B1B889BB2002B02D1FFF756FE17E002220D4B1A70D5
:401B800000220D4B1A70FFF7DDFF0C4AD3691B029BB2926913439BB2054A128892B2934201D2034A1380FFF7EDFD012010BDC046E0670020D86700206A68002000002C4008
:401BC00010B504220C4B1A707C320C4B1A70FFF7B9FF0B4AD3691B029BB2926913439BB2084A128892B2934201D2064A13800B22054B1A70012010BDD86700206A68002042
:401C000000002C40E0670020F567002001220A4B1A600A4B9B6C0A4B1A7B03231340012B06D0074AD17B80235B424B40DBB2D3730122034B5A7370472C002C40F0FF2B4080
:401C4000FC67002002220B4B1A6088230A4AD3580A4B1A7E03231340012B06D0074AD17E80235B424B40DBB2D3760122034B5A767047C0462C002C40F0FF2B40FC670020A7
:401C800004220C4B1A60C8230B4AD35824230B4AD25C213B1340012B07D008492722885C80235B424340DBB28B5401212523034AD15470472C002C40F0FF2B40FC67002091
:401CC0000122014B1A60704720202C4010B50222024B1A60FFF750FB10BDC04620202C4070B50D4B1D682B0601D5002398470F2422002A40EC08FF235B011C401443002514
:401D000007E0E30703D5AB00044A9B58984764080135002CF5D170BD34202C40D036000070B50D4B1D682B0601D5002398470F2422002A40EC08FF235B011C401443002594
:401D400007E0E30703D5AB00044A9B58984764080135002CF5D170BD38202C40D036000070B50D4B1D682B0601D5002398470F2422002A40EC08FF235B011C401443002550
:401D800007E0E30703D5AB00044A9B58984764080135002CF5D170BD3C202C40D036000010B500F089FC10BDF0B589B0040003AB154A23CA23C3190013680B6013790B7150
:401DC000002C1FD0222323701F3B637001A8FFF75FF80020022313E001AA125C110903AD695CE154591C611800260E70991C0F273A40AA5C6254DA1CA21816700130043367
:401E0000212BE9D909B0F0BD3437000010B5012338E09A010C201E4950505900C9188A001C498A185279002A16D05900C9188A0018498A18127952B2002A06DA9A011649F4
:401E40008C4662440C2191600CE09A0112498C4662440821916005E09A010F498C466244802191605900C9188A000A498A18D18889B29801094C0419A160D28892B207492F
:401E800042500133082BC4D9FF22054B1A6010BDC0012C40FC670020F0FF2B40D0112C4028002C40074B1B78DB00074AD3185B681A7C824204D9C00010301818406800E03B
:401EC00000207047D567002048370000F0B557464E464546E0B43F4B1B78002B75D03D4B18780138C0B2FFF7DDFF047AC3683A4A1078C0B2002266E01978884261D137497D
:401F0000095CC9B25D78A9425BD199787F252940DD7803262E40B446314DA8464E007718BD004544AA460027EF709F782F71DF78B9467618B70046464D46BD559E88554688
:401F40002E8102255D57002D0EDA6546012D01D1072700E00D274E007618B500204E75196F7101266E700DE06546012D01D1052700E009274E007618B500194E75196F7129
:401F800000266E708D01174EB146A94401264F46BE604E0071188E00114989190E89360AB046104E4746AF510E89F6B24F467E60CE88B6B20C4FEF19BE60C98889B20A4E7E
:401FC000A95108330132A24296D31CBC90469946A246F0BDF7670020EC67002068680020FC670020F0FF2B40D0112C40034B1B78DB00034AD31858687047C046D567002032
:402000004837000010B5084B18780138C0B2FFF749FF002806D043681B790233DB00C018406800E0002010BDF7670020F0B557464E464546E0B482B0002312E0744E590021
:40204000CC18A20000249455B2189470D4700025148195725570C9188A00B21855710133DBB2082BEAD9002808D10AE000226949CA546949CA540133DBB200E00023012BE6
:40208000F4D9664B1B78002B00D1BAE0634B18780138C0B2FFF706FF80464368DB795B0606D55F4A117801230B43DBB2137004E05B4A137801218B43137043461F7A002314
:4020C000019301266EE04346DD68002466E0AB787F210B409E425ED13000710089198B004B49CB181B899BB2A9888B4205D273009A199300464AD31819812B784549CB5C51
:40210000DBB269788B4246D1AB789A46404B9C46430019188900614452460A71EA781B189900131C62468B54EB7803210B4002216956002912DA012B02D106339A4601E082
:402140000D239A46324B9C46430019188900614452464A710B000121597011E0012B02D104339A4601E009239A46294B9C46430019188900614452464A710B0000215970D1
:40218000AB790A2B01D0022B05D1019A31002800FFF7CAFA019008350134E4B2BC4296D30136F6B2082E8ED94346D86800220CE083787F210B4004785900CB189900144B5B
:4021C00059188C7208300132D2B2BA42F0D3FFF719FF144B1860002201230EE00C4D5900C81884002C19E28021898A1891B201220A4089188AB20133DBB2082BEED9FFF762
:4022000005FE02B01CBC90469946A246F0BDC046FC67002068680020DC670020F7670020F9670020F067002010B5174B1B697F2213405A1E072A24D85900C9188A00134912
:402240008A18907801210143C9B291700021D170507802210143C9B25170127952B2002A06DA9B010A4A944663448D229A6005E09B01074A9446634489229A60FFF732FB37
:4022800000E0002010BDC04600002C40FC670020F0FF2B4070B5284B1B697F2213405A1E072A46D85900C9188A0024498A1891780120814391700021D17021489C01215888
:4022C0008025A94321505178022081435170127952B2002A15DA5900C9188A0017498A185278012A06D12300154A944663440C229A601BE09B01124A944663440D229A606A
:4023000014E05900C9188A000C498A185278012A06D19B010A4A9446634408229A6005E09B01074A9446634409229A60FFF7DAFA00E0002070BDC04600002C40FC67002029
:40234000F0FF2B4070B50F4B1C69E5B20E4B18780138C0B2FFF7A6FD43681B799D4201D9022D0CD8FF2323400849CA5CD2B20848C254044A9268D2B2CA54012000E000203F
:4023800070BDC04600002C40F767002068680020DC67002010B5B34B1B680021B24A11801A0600D4A1E0AF4A5268062A0AD002D8002A5ED037E1082A00D183E00A2A00D1D2
:4023C00088E030E1A74BDB68012B09D1FFF70EFE4268A54B5A6012221A80FFF7C5FB3FE1A04BDB68022B14D19E4B9868C0B2FFF759FD002800D118E143689B4A5360536858
:40240000DB781B02516889780B431380FFF7ACFB26E1944BDB68032B05D027E0117852180133DBB201E00023904A8E498968994202D911780029F1D18A4B9B68002B0AD060
:40244000884B99688A4B1B7C994204D1894C2000FFF7AAFC22001378002B00D1E7E0137881490B804A60FFF77FFBF9E000F0B6FDF6E00322134017D0022B00D0D9E07A4947
:402480000B80784B1B697C3213405A00D3189A00794B9A189278D2B2784B1A7000225A704B60FFF761FBDBE06F4902230B80744B1A78D2B2714B1A7000225A704B60FFF765
:4024C00053FBCDE0684B01221A806E4A5A60FFF74BFBC5E0644A01231380624B19696A4BCB185360FFF740FBBAE05E4A52680B2A00D9A0E0920065498A589746594B9B68DE
:40250000DBB2634A1370FFF7EDF9A9E0554B9C68002C03D0601EC0B2FFF7C4FC002C01D0002802D1002C00D087E0564B1B78DBB29C4208D0E4B2534B1C700122554B1A7051
:402540000120FFF773FDFFF7CDF989E0FFF7FAFE002874D0434B19691B69DBB24E4A13704E4B5A5CD2B2484B5B5CDBB29A4204D00122484B1A70FFF7A9FCFFF7B3F96FE0F3
:4025800003221340012B16D0002B08D0022B58D1344B9B68002B56D1FFF77CFE60E0314B9B68012B51D1364A137802218B431370FFF798F954E02B4B1B69012B47D8294BF4
:4025C00098681A6936498B5C83438B54FFF78AF946E003221340012B17D0002B08D0022B37D1204B9B68002B35D1FFF71DFE37E01C4B9B68012B30D1214A117802230B4326
:40260000DBB21370FFF76EF92AE0164B1B69012B25D8144B98681A6921498B5C83438B54FFF760F91CE000201AE0002018E0002016E0002014E0002012E0002010E0002054
:402640000EE000200CE000200AE0002008E0002006E0002004E0002002E0002000E0002010BDC04600002C40E0670020B03700009438000078680020FC6700206C020020B8
:40268000F9670020F76700206868002004370000F6670020F4670020EC670020DC6700206C680020034B1B681B0601D5014B5B680020704700002C40024A106801231840D5
:4026C00010607047100D044070B52B4B1B78002B28D00122294B1A60294B1968294A117000211960284801780C02284BE318284C636680231B06E366264B1B78264B1C68C5
:40270000264B1C60264D2B781678264AD65401331F2213402B709B00234D5C5101310A40027027E00122154B1A60204B1968204A117000211960144801780C02134BE318B4
:40274000134C636480231B06E364124B1B78124B1C68124B1C60124D2B781678114AD65401331F2213402B709B000F4D5C5101310A40027070BDC04664000F4080E200E04C
:40278000C801204075680020C4020020904700200018104004000F4010210F40706800208847002094670020004500208801204074680020014B18647047C04600000020EA
:4027C00010B5040000F0D9FB044A1368C0218B43A4011C43146000F0D4FB10BD00E400E00122014B1A60704700E100E00122014B1A60704780E100E010B5FFF7F7FF0448CD
:40280000FFF7D8FF0020FFF7DBFFFFF7E9FF10BDC92600000122014B1A60704780E200E0014B18707047C04674000F40034A117880235B420B43DBB21370704777000F401A
:40284000014B18707047C04687000F40014B1878C0B2704767000F40014B18607047C04690200F40014B18687047C04610210F40014B18607047C04610200F40024B1B78CD
:40288000024B18687047C04604000F4010210F4010B501E0FFF7E6FFFFF7D8FF0307F9D410BDC04610B5012464422000FFF7D4FF2000FFF7DDFF00F060FB074A1178102300
:4028C0000B43DBB2137000F05CFBFFF7E1FF0020FFF7B6FF10BDC04697000F4010B5064B1B78002B04D1FFF7DDFF0122024B1A70FFF79CFF10BDC0466E020020014B18709C
:402900007047C04670000F400022034BDA60034B034999669A6770478010104000181040FD00200070B505000C000E4B1B78002B04D1FFF7E9FF01220A4B1A70FEF704FBC5
:402940002A0000210320FEF745FB220000210320FEF756FB00210320FEF722FB0320FEF70DFB70BD6F0200200022034B9A60034B034999649A6570478010104000181040D5
:40298000FD00200070B505000C000E4B1B78002B04D1FFF7E9FF01220A4B1A70FEF7D4FA2A0000210220FEF715FB220000210220FEF726FB00210220FEF7F2FA0220FEF70D
:4029C000DDFA70BD700200200122064B1A6080221206054B1A600422044B1A60013A044B1A607047740200200000304004003040080F3040044A1168044B1B680B4380219C
:402A000009010B4313607047040030407402002010B5064B1B79002B04D1FFF7D5FF0122024B1A71FFF7E6FF10BDC0467402002010B500F0A2FA0F4C23680F229343190000
:402A40000D4B1B7813400B4323600C4A136813600B4B1C680B492140196011688024E400214311601A68802149020A431A6000F088FA10BD04FF294061F2FF0F0800294073
:402A800004002940FFFFFEFF10B500F076FA074A1368C02189000B431360054A1368802109060B43136000F06CFA10BD080029400400294010B5064B1B68002B04D1FFF7C7
:402AC000B7FF0122024B1A60FFF7DEFF10BDC0467C02002010B5040000F04FFA044A1368FF218B431C43146000F04BFA10BDC046080029400004000C014B18607047C0465C
:402B0000880120400004000C014B18607047C046940120400004000C014B18607047C0468C01204070B504000D0000F026FAAC40024B1C6000F025FA70BDC0460800204003
:402B400010B500F01AFA064A116804230B43136000F017FA18210420FFF7E4FF10BDC04600002040014B18607047C046B801204010B58022D202094B1A600022084B1A60DF
:402B80000020FFF7EFFF074C2000FFF7BBFF2000FFF7C0FF0020FFF7ADFF10BD80012040A4012040FFFF000010B5064B1B78002B04D1FFF7DDFF0122024B1A70FFF7C0FF7C
:402BC00010BDC046800200200004000C014B18607047C046C80120400004000C014B18607047C046D40120400004000C014B18607047C046CC01204070B504000D0000F0FC
:402C0000BCF9AC40024B1C6000F0BBF970BDC0460800204010B500F0B0F9064A116808230B43136000F0ADF918210820FFF7E4FF10BDC04600002040014B18607047C04654
:402C4000F801204010B58022D202094B1A600022084B1A600020FFF7EFFF074C2000FFF7BBFF2000FFF7C0FF0020FFF7ADFF10BDC0012040E4012040FFFF000010B5064BFE
:402C80001B78002B04D1FFF7DDFF0122024B1A70FFF7C0FF10BDC046810200200004000C014B18607047C046080120400004000C014B18607047C0461401204070B5040061
:402CC0000D0000F05AF9AC40024B1C6000F059F970BDC0460800204010B500F04EF9064A116801230B43136000F04BF918210120FFF7E4FF10BDC04600002040014B1860EA
:402D00007047C0463801204010B580229204074B1A603022064B1A600120FFF7EFFF3020FFF7C4FF0020FFF7B9FF10BD000120402401204010B5064B1B78002B04D1FFF729
:402D4000E3FF0122024B1A70FFF7C6FF10BDC046820200200004000C014B18607047C046480120400004000C014B18607047C0465401204070B504000D0000F0FEF8AC40BD
:402D8000024B1C6000F0FDF870BDC0460800204010B500F0F2F8064A116802230B43136000F0EFF818210220FFF7E4FF10BDC04600002040014B18607047C04678012040E4
:402DC00010B580229204074B1A603022064B1A600120FFF7EFFF3020FFF7C4FF0020FFF7B9FF10BD400120406401204010B5064B1B78002B04D1FFF7E3FF0122024B1A7063
:402E0000FFF7C6FF10BDC046830200200023074A1360074A1360074A13700122064B1A6080229203054B1A607047C046480120400801204071000F407001204080E200E04F
:402E40009423014AD05070470000002010B5040000F093F8044A1168044B0B40A4031C43146000F08EF810BD14E400E0FF3FFFFF80229203014B1A607047C04600E100E068
:402E800080229203014B1A607047C04680E100E010B5FFF7F5FF0448FFF7D2FF0220FFF7D5FFFFF7E5FF10BD0D2E000080229203014B1A607047C04680E200E00023074A17
:402EC0001360074A13600133064A1370064A136080225203054B1A607047C046480120400801204071000F403001204080E200E09023014AD05070470000002010B50400F0
:402F000000F03BF8044A1368C0218B43A4011C43146000F036F810BD14E400E080225203014B1A607047C04600E100E080225203014B1A607047C04680E100E010B5FFF70A
:402F4000F5FF0448FFF7D4FF0220FFF7D7FFFFF7E5FF10BDBD2E000080225203014B1A607047C04680E200E00230800803D00138FDD1C046C046C0467047EFF3108072B615
:402F8000704780F31088704770B50400FFF7F5FF0500102C05D8104A136803218B43136016E0202C07D80C490B6803229343023A13430B600CE0302C07D807490B6803223D
:402FC0009343013A13430B6002E00020FDF7ACFD2800FFF7D6FF70BD3000104010B5144B1B6803221340012B02D0022B04D00FE00F4B1B69DBB20CE00D4B1B697F2213408C
:403000005A00D3189A000B4B9A18937ADBB200E00023022B07D8084A1268D35C022B04D1FEF7B8FA02E0002000E0002010BDC04600002C40FC670020F0670020014B186855
:403040007047C046E00100200E4B70B500251E000D4CE41AA410A54204D0AB00F35898470135F8E700F020FC084B00251E00084CE41AA410A54204D0AB00F35898470135B3
:40308000F8E770BDB4380000B4380000B4380000BC380000002310B59A4203D0CC5CC4540133F9E710BD03008218934202D019700133FAE7704700000000000000300F407C
:4030C000800400350F40000180360F40800100400F40000880340F40A0350000800000360F40203600008000870D024303800643070108430B090D010E4310101244150100
:4031000016431740183A1A441B011C201E441F012154224323AA264327052A432B212C452E082F11310332403330343F350C37C038203B033E04580459045B045C885F1181
:4031400082F4840C8AF48EF4910693099440968098089C809E429F0AA010A220A705A820AA11ACF5AE02B030B10CB2C0B303B40CB603B820BA0ABF05D804D904DB04DC08DB
:40318000DF11008A03040440052A080809080AA60E29104411421221131014081540168019281A041C021D501E691F08204821102201231124102609280429442A012C2014
:4031C0002EC030403210330434803701384039343B0169406F017A087C108010C0FFC2EFC4DFCA4FCC9ECE0FDE24E401000401400380050406010708081009080B140C0897
:403200000DDF0F20120113CF15801601176018021D011E011F02220123CF240127CF2A012D022E012F013103330C3530361F37C038083B8A3E44580459045C805F118211B7
:4032400086118A118C848E208F0990D2922096119702981199109E11A115A211A30AA408AA11AB20AC27AE48AF04B0F1B10CB303B40FB530B802B920BE10D804D904DC8873
:40328000DF11005A024004400512072109180A820B020C500E060F5011421314140215101640170419221A801D041F402084210822012364240125142786280229202B409B
:4032C0002D022E042F013010310837853B403C013D483F907A087C027D027E0889048A018D0490409150924493109504968099109C809D029F04A005A209A308A460A509C1
:40330000B504B621C0FFC2FFC4FFCADDCCD6CEF8DE24E21002060301070808020A040F04100117041B022C01300131083201330134023504360437023A083B803E503F106E
:403340004046410549FF4AFF4BFF4F015018580459045A045B045C985D095F116040624064406540668068806A806C806E800010038005150B800D200E22114015821720DD
:4033800018981A021C801D111E221F802141224023282521268027142C402D402E04308831103240350236803714380439023A803C483D024280468048094B404C084F4079
:4033C0005B4068016B017A087E0888809044914092449380984099029B829C80A004A104A208A308A501A830AA01C07AC2E8C4D1CAD0CCF6CEDBD081D23CD608DE24E0208F
:40340000E801EC01C056C104C5ECC702C813C9FFCAFFCBFFCD83CE03CF01D018D280D401DA04DB04DD99DF05E040E240E440E540E680E880EA80EC80EE800401055506080A
:403440000C800E680F2017901D451E08254126282C802E082F0A300432083410350436A037023C403D8A3E023F204080430147014808490A4B404C084F405008598A5C410C
:403480005E085F206414654066027280734078808004844087208A018E088F029008924299909B939D049E80A0C0A104A290A308A408A840A980AB08B410B740C0F0C2F073
:4034C000C4C0CAF0CCF0CEF0D081D23CD6FBD8F0DE08E401E6805A806B046C02D480DAC05A808E4096809F04A402D480022007208A209F24A402AB20C030E8808802A4023C
:40350000AB04EA805F028310D6013A0847208E088F029F02A310CE02D004E00841804308460889809920A310A920AB20D00EE0042E013E08430857105D2083088A09992057
:403540009E08A310A708CA01CE01D002D402D604E004E6010201130101000F404C300F4035310F404B320F4049330F402D340F404B350F401B360F404E370F4005400F4057
:4035800006410F4008420F4004430F4003440F4009450F400A460F4012470F4002600F40200240811E2061507F0080000000003F0000003F7F1000204001200201080604A7
:4035C000140400080000003F00000A007F7F808060C080031830070C0000BAA800000000460500000000000000FFFFFF00830301180000000000000004040400890900116E
:4036000040004000404080008000800080008000000000000000000000000000000000000410082000026F016FFF100001040208022001106F0010FF200140026F08100430
:4036400000FF000000FF000040802040084004800C3010C06003030C0000AAAA00000000560400000000000000FFFFFF0083030118000000000000000404040499090001E5
:403680004000400040408000800080008000800000000000000000000000000000000000030405060708090A0B0C0E0F101112131415161718191B1C1D1E1F202122232519
:4036C000262728292A2B2E2F3031323334350000C11C0000CD1C0000911A000000000000000000000D1C0000451C0000811C000000000000000000000000000000000000B3
:4037000000000000362600008025000036260000D225000036260000FC2400003626000036260000362600000C250000362600004C25000030313233343536373839414217
:4037400043444546000000000100000050370000010000009438000000000000000000000100000068370000010000005038000003000000943700000000000000000000EB
:4037800000000000000000000000000090370000020A000000008103080002000100820240000A000100030240000A0002030000040309042C03430079007000720065003E
:4037C000730073002000530065006D00690063006F006E0064007500630074006F007200100355005300420055004100520054003803430044004300200043006F006D00E7
:403800006D0075006E00690063006100740069006F006E00200049006E007400650072006600610063006500260343004400430020004400610074006100200049006E003C
:4038400074006500720066006100630065000000090243000201018032090400000102020103052400100104240202052406000105240100010705810308000A09040100E3
:40388000020A0000040705820240000007050302400000001201000202000008A90809080100010280014300F8B5C046F8BC08BC9E467047E9020000B5080000F8B5C0460D
:4038C000F8BC08BC9E467047C1020000E0380000C000002028010000B86600000000000000000000010000000000C05D80BB000030000000006CDC02310F0000310F000060
:40390000310F0000310F0000310F0000310F0000310F0000310F0000310F0000310F0000310F0000310F0000310F0000310F0000310F0000310F0000310F0000310F000087
:40394000310F0000310F0000310F0000310F0000310F0000310F0000310F0000310F0000310F0000310F0000310F0000310F0000310F0000310F00000C000000F0000000CB
:403980000404040000C2010000000800C201000000080000A120000000000200000000000000000000000000000000000000000000000000000000000000000000000000A2
:4039C000A6380000000000000000000000000000000000000000000000000000000000000000000000000000000000000000000000000000000000000000000000000000E9
:403A000080010020000000000000000000000000000000000000000000000000000000000000000000000000000000000000000000000000000000000000000000000000E5
:403A40000000000000000000000000000000000000000000000000000000000000000000000000000000000000000000000000000000000000000000000000000000000046
:403A80000000000000000000000000000000000000000000000000000000000000000000000000000000000000000000000000000000000000000000000000000000000006
:403AC00000000000000000000000000000000000000000000000000000000000000000000000000000000000000000000000000000000000000000000000000000000000C6
:403B00000000000000000000000000000000000000000000000000000000000000000000000000000000000000000000000000000000000000000000000000000000000085
:020000040003F7
:0200000490303A
:0200000077F097
:0200000490402A
:4000000000000000000000000000000000000000000000000000000000000000000000000000000000000000000000000000000000000000000000000000000000000000C0
:400040000000000000000000000000000000000000000000000000000000000000000000000000000000000000000000000000000000000000000000000000000000000080
:0200000490501A
:0C0000000002100E11A0000010208990DA
:0200000490600A
:0100000001FE
:00000001FF